{
  "_format": "hh-sol-artifact-1",
  "contractName": "CertificateNFT",
  "sourceName": "contracts/Certify.sol",
  "abi": [
    {
      "inputs": [],
      "stateMutability": "nonpayable",
      "type": "constructor"
    },
    {
      "anonymous": false,
      "inputs": [
        {
          "indexed": true,
          "internalType": "address",
          "name": "owner",
          "type": "address"
        },
        {
          "indexed": true,
          "internalType": "address",
          "name": "approved",
          "type": "address"
        },
        {
          "indexed": true,
          "internalType": "uint256",
          "name": "tokenId",
          "type": "uint256"
        }
      ],
      "name": "Approval",
      "type": "event"
    },
    {
      "anonymous": false,
      "inputs": [
        {
          "indexed": true,
          "internalType": "address",
          "name": "owner",
          "type": "address"
        },
        {
          "indexed": true,
          "internalType": "address",
          "name": "operator",
          "type": "address"
        },
        {
          "indexed": false,
          "internalType": "bool",
          "name": "approved",
          "type": "bool"
        }
      ],
      "name": "ApprovalForAll",
      "type": "event"
    },
    {
      "anonymous": false,
      "inputs": [
        {
          "indexed": false,
          "internalType": "uint256",
          "name": "_fromTokenId",
          "type": "uint256"
        },
        {
          "indexed": false,
          "internalType": "uint256",
          "name": "_toTokenId",
          "type": "uint256"
        }
      ],
      "name": "BatchMetadataUpdate",
      "type": "event"
    },
    {
      "anonymous": false,
      "inputs": [
        {
          "indexed": true,
          "internalType": "uint256",
          "name": "tokenId",
          "type": "uint256"
        }
      ],
      "name": "CertificateClaimed",
      "type": "event"
    },
    {
      "anonymous": false,
      "inputs": [
        {
          "indexed": false,
          "internalType": "uint256",
          "name": "_tokenId",
          "type": "uint256"
        }
      ],
      "name": "MetadataUpdate",
      "type": "event"
    },
    {
      "anonymous": false,
      "inputs": [
        {
          "indexed": true,
          "internalType": "address",
          "name": "from",
          "type": "address"
        },
        {
          "indexed": true,
          "internalType": "address",
          "name": "to",
          "type": "address"
        },
        {
          "indexed": true,
          "internalType": "uint256",
          "name": "tokenId",
          "type": "uint256"
        }
      ],
      "name": "Transfer",
      "type": "event"
    },
    {
      "inputs": [
        {
          "internalType": "address",
          "name": "to",
          "type": "address"
        },
        {
          "internalType": "uint256",
          "name": "tokenId",
          "type": "uint256"
        }
      ],
      "name": "approve",
      "outputs": [],
      "stateMutability": "nonpayable",
      "type": "function"
    },
    {
      "inputs": [
        {
          "internalType": "address",
          "name": "owner",
          "type": "address"
        }
      ],
      "name": "balanceOf",
      "outputs": [
        {
          "internalType": "uint256",
          "name": "",
          "type": "uint256"
        }
      ],
      "stateMutability": "view",
      "type": "function"
    },
    {
      "inputs": [
        {
          "internalType": "address",
          "name": "recipient",
          "type": "address"
        },
        {
          "internalType": "string",
          "name": "tokenURI",
          "type": "string"
        }
      ],
      "name": "claimCertificate",
      "outputs": [
        {
          "internalType": "uint256",
          "name": "",
          "type": "uint256"
        }
      ],
      "stateMutability": "nonpayable",
      "type": "function"
    },
    {
      "inputs": [
        {
          "internalType": "uint256",
          "name": "tokenId",
          "type": "uint256"
        }
      ],
      "name": "getApproved",
      "outputs": [
        {
          "internalType": "address",
          "name": "",
          "type": "address"
        }
      ],
      "stateMutability": "view",
      "type": "function"
    },
    {
      "inputs": [
        {
          "internalType": "address",
          "name": "owner",
          "type": "address"
        },
        {
          "internalType": "address",
          "name": "operator",
          "type": "address"
        }
      ],
      "name": "isApprovedForAll",
      "outputs": [
        {
          "internalType": "bool",
          "name": "",
          "type": "bool"
        }
      ],
      "stateMutability": "view",
      "type": "function"
    },
    {
      "inputs": [],
      "name": "name",
      "outputs": [
        {
          "internalType": "string",
          "name": "",
          "type": "string"
        }
      ],
      "stateMutability": "view",
      "type": "function"
    },
    {
      "inputs": [
        {
          "internalType": "uint256",
          "name": "tokenId",
          "type": "uint256"
        }
      ],
      "name": "ownerOf",
      "outputs": [
        {
          "internalType": "address",
          "name": "",
          "type": "address"
        }
      ],
      "stateMutability": "view",
      "type": "function"
    },
    {
      "inputs": [
        {
          "internalType": "address",
          "name": "from",
          "type": "address"
        },
        {
          "internalType": "address",
          "name": "to",
          "type": "address"
        },
        {
          "internalType": "uint256",
          "name": "tokenId",
          "type": "uint256"
        }
      ],
      "name": "safeTransferFrom",
      "outputs": [],
      "stateMutability": "nonpayable",
      "type": "function"
    },
    {
      "inputs": [
        {
          "internalType": "address",
          "name": "from",
          "type": "address"
        },
        {
          "internalType": "address",
          "name": "to",
          "type": "address"
        },
        {
          "internalType": "uint256",
          "name": "tokenId",
          "type": "uint256"
        },
        {
          "internalType": "bytes",
          "name": "data",
          "type": "bytes"
        }
      ],
      "name": "safeTransferFrom",
      "outputs": [],
      "stateMutability": "nonpayable",
      "type": "function"
    },
    {
      "inputs": [
        {
          "internalType": "address",
          "name": "operator",
          "type": "address"
        },
        {
          "internalType": "bool",
          "name": "approved",
          "type": "bool"
        }
      ],
      "name": "setApprovalForAll",
      "outputs": [],
      "stateMutability": "nonpayable",
      "type": "function"
    },
    {
      "inputs": [
        {
          "internalType": "bytes4",
          "name": "interfaceId",
          "type": "bytes4"
        }
      ],
      "name": "supportsInterface",
      "outputs": [
        {
          "internalType": "bool",
          "name": "",
          "type": "bool"
        }
      ],
      "stateMutability": "view",
      "type": "function"
    },
    {
      "inputs": [],
      "name": "symbol",
      "outputs": [
        {
          "internalType": "string",
          "name": "",
          "type": "string"
        }
      ],
      "stateMutability": "view",
      "type": "function"
    },
    {
      "inputs": [
        {
          "internalType": "uint256",
          "name": "tokenId",
          "type": "uint256"
        }
      ],
      "name": "tokenURI",
      "outputs": [
        {
          "internalType": "string",
          "name": "",
          "type": "string"
        }
      ],
      "stateMutability": "view",
      "type": "function"
    },
    {
      "inputs": [
        {
          "internalType": "address",
          "name": "from",
          "type": "address"
        },
        {
          "internalType": "address",
          "name": "to",
          "type": "address"
        },
        {
          "internalType": "uint256",
          "name": "tokenId",
          "type": "uint256"
        }
      ],
      "name": "transferFrom",
      "outputs": [],
      "stateMutability": "nonpayable",
      "type": "function"
    }
  ],
  "bytecode": "0x60806040523480156200001157600080fd5b506040518060400160405280601281526020017f4c6561726e61626c6557656233694e66747300000000000000000000000000008152506040518060400160405280600381526020017f4c5754000000000000000000000000000000000000000000000000000000000081525081600090816200008f91906200042e565b508060019081620000a191906200042e565b505050620000ea6040518060400160405280601e81526020017f54686973206973206d79204e465420636f6e74726163742e20576f6168210000815250620000f060201b60201c565b620005c8565b6200019081604051602401620001079190620005a4565b6040516020818303038152906040527f41304fac000000000000000000000000000000000000000000000000000000007bffffffffffffffffffffffffffffffffffffffffffffffffffffffff19166020820180517bffffffffffffffffffffffffffffffffffffffffffffffffffffffff83818316178352505050506200019360201b60201c565b50565b60006a636f6e736f6c652e6c6f679050600080835160208501845afa505050565b600081519050919050565b7f4e487b7100000000000000000000000000000000000000000000000000000000600052604160045260246000fd5b7f4e487b7100000000000000000000000000000000000000000000000000000000600052602260045260246000fd5b600060028204905060018216806200023657607f821691505b6020821081036200024c576200024b620001ee565b5b50919050565b60008190508160005260206000209050919050565b60006020601f8301049050919050565b600082821b905092915050565b600060088302620002b67fffffffffffffffffffffffffffffffffffffffffffffffffffffffffffffffff8262000277565b620002c2868362000277565b95508019841693508086168417925050509392505050565b6000819050919050565b6000819050919050565b60006200030f620003096200030384620002da565b620002e4565b620002da565b9050919050565b6000819050919050565b6200032b83620002ee565b620003436200033a8262000316565b84845462000284565b825550505050565b600090565b6200035a6200034b565b6200036781848462000320565b505050565b5b818110156200038f576200038360008262000350565b6001810190506200036d565b5050565b601f821115620003de57620003a88162000252565b620003b38462000267565b81016020851015620003c3578190505b620003db620003d28562000267565b8301826200036c565b50505b505050565b600082821c905092915050565b60006200040360001984600802620003e3565b1980831691505092915050565b60006200041e8383620003f0565b9150826002028217905092915050565b6200043982620001b4565b67ffffffffffffffff811115620004555762000454620001bf565b5b6200046182546200021d565b6200046e82828562000393565b600060209050601f831160018114620004a6576000841562000491578287015190505b6200049d858262000410565b8655506200050d565b601f198416620004b68662000252565b60005b82811015620004e057848901518255600182019150602085019450602081019050620004b9565b86831015620005005784890151620004fc601f891682620003f0565b8355505b6001600288020188555050505b505050505050565b600082825260208201905092915050565b60005b838110156200054657808201518184015260208101905062000529565b60008484015250505050565b6000601f19601f8301169050919050565b60006200057082620001b4565b6200057c818562000515565b93506200058e81856020860162000526565b620005998162000552565b840191505092915050565b60006020820190508181036000830152620005c0818462000563565b905092915050565b612bd080620005d86000396000f3fe608060405234801561001057600080fd5b50600436106100ea5760003560e01c80636352211e1161008c578063a22cb46511610066578063a22cb4651461026f578063b88d4fde1461028b578063c87b56dd146102a7578063e985e9c5146102d7576100ea565b80636352211e146101f157806370a082311461022157806395d89b4114610251576100ea565b8063095ea7b3116100c8578063095ea7b31461016d57806323b872dd14610189578063305ca49c146101a557806342842e0e146101d5576100ea565b806301ffc9a7146100ef57806306fdde031461011f578063081812fc1461013d575b600080fd5b61010960048036038101906101049190611abf565b610307565b6040516101169190611b07565b60405180910390f35b610127610368565b6040516101349190611bb2565b60405180910390f35b61015760048036038101906101529190611c0a565b6103fa565b6040516101649190611c78565b60405180910390f35b61018760048036038101906101829190611cbf565b610440565b005b6101a3600480360381019061019e9190611cff565b610557565b005b6101bf60048036038101906101ba9190611e87565b6105b7565b6040516101cc9190611ef2565b60405180910390f35b6101ef60048036038101906101ea9190611cff565b610625565b005b61020b60048036038101906102069190611c0a565b610645565b6040516102189190611c78565b60405180910390f35b61023b60048036038101906102369190611f0d565b6106cb565b6040516102489190611ef2565b60405180910390f35b610259610782565b6040516102669190611bb2565b60405180910390f35b61028960048036038101906102849190611f66565b610814565b005b6102a560048036038101906102a09190612047565b61082a565b005b6102c160048036038101906102bc9190611c0a565b61088c565b6040516102ce9190611bb2565b60405180910390f35b6102f160048036038101906102ec91906120ca565b61099e565b6040516102fe9190611b07565b60405180910390f35b6000634906490660e01b7bffffffffffffffffffffffffffffffffffffffffffffffffffffffff1916827bffffffffffffffffffffffffffffffffffffffffffffffffffffffff19161480610361575061036082610a32565b5b9050919050565b60606000805461037790612139565b80601f01602080910402602001604051908101604052809291908181526020018280546103a390612139565b80156103f05780601f106103c5576101008083540402835291602001916103f0565b820191906000526020600020905b8154815290600101906020018083116103d357829003601f168201915b5050505050905090565b600061040582610b14565b6004600083815260200190815260200160002060009054906101000a900473ffffffffffffffffffffffffffffffffffffffff169050919050565b600061044b82610645565b90508073ffffffffffffffffffffffffffffffffffffffff168373ffffffffffffffffffffffffffffffffffffffff16036104bb576040517f08c379a00000000000000000000000000000000000000000000000000000000081526004016104b2906121dc565b60405180910390fd5b8073ffffffffffffffffffffffffffffffffffffffff166104da610b5f565b73ffffffffffffffffffffffffffffffffffffffff161480610509575061050881610503610b5f565b61099e565b5b610548576040517f08c379a000000000000000000000000000000000000000000000000000000000815260040161053f9061226e565b60405180910390fd5b6105528383610b67565b505050565b610568610562610b5f565b82610c20565b6105a7576040517f08c379a000000000000000000000000000000000000000000000000000000000815260040161059e90612300565b60405180910390fd5b6105b2838383610cb5565b505050565b60006105c36007610fae565b60006105cf6007610fc4565b90506105db8482610fd2565b6105e581846111ef565b6105ee83611293565b807f316a266e8928f9f8c9070f556342220bc50698491886bae4abf36ebffe08bbdb60405160405180910390a28091505092915050565b6106408383836040518060200160405280600081525061082a565b505050565b6000806106518361132c565b9050600073ffffffffffffffffffffffffffffffffffffffff168173ffffffffffffffffffffffffffffffffffffffff16036106c2576040517f08c379a00000000000000000000000000000000000000000000000000000000081526004016106b99061236c565b60405180910390fd5b80915050919050565b60008073ffffffffffffffffffffffffffffffffffffffff168273ffffffffffffffffffffffffffffffffffffffff160361073b576040517f08c379a0000000000000000000000000000000000000000000000000000000008152600401610732906123fe565b60405180910390fd5b600360008373ffffffffffffffffffffffffffffffffffffffff1673ffffffffffffffffffffffffffffffffffffffff168152602001908152602001600020549050919050565b60606001805461079190612139565b80601f01602080910402602001604051908101604052809291908181526020018280546107bd90612139565b801561080a5780601f106107df5761010080835404028352916020019161080a565b820191906000526020600020905b8154815290600101906020018083116107ed57829003601f168201915b5050505050905090565b61082661081f610b5f565b8383611369565b5050565b61083b610835610b5f565b83610c20565b61087a576040517f08c379a000000000000000000000000000000000000000000000000000000000815260040161087190612300565b60405180910390fd5b610886848484846114d5565b50505050565b606061089782610b14565b60006006600084815260200190815260200160002080546108b790612139565b80601f01602080910402602001604051908101604052809291908181526020018280546108e390612139565b80156109305780601f1061090557610100808354040283529160200191610930565b820191906000526020600020905b81548152906001019060200180831161091357829003601f168201915b505050505090506000610941611531565b90506000815103610956578192505050610999565b60008251111561098b57808260405160200161097392919061245a565b60405160208183030381529060405292505050610999565b61099484611548565b925050505b919050565b6000600560008473ffffffffffffffffffffffffffffffffffffffff1673ffffffffffffffffffffffffffffffffffffffff16815260200190815260200160002060008373ffffffffffffffffffffffffffffffffffffffff1673ffffffffffffffffffffffffffffffffffffffff16815260200190815260200160002060009054906101000a900460ff16905092915050565b60007f80ac58cd000000000000000000000000000000000000000000000000000000007bffffffffffffffffffffffffffffffffffffffffffffffffffffffff1916827bffffffffffffffffffffffffffffffffffffffffffffffffffffffff19161480610afd57507f5b5e139f000000000000000000000000000000000000000000000000000000007bffffffffffffffffffffffffffffffffffffffffffffffffffffffff1916827bffffffffffffffffffffffffffffffffffffffffffffffffffffffff1916145b80610b0d5750610b0c826115b0565b5b9050919050565b610b1d8161161a565b610b5c576040517f08c379a0000000000000000000000000000000000000000000000000000000008152600401610b539061236c565b60405180910390fd5b50565b600033905090565b816004600083815260200190815260200160002060006101000a81548173ffffffffffffffffffffffffffffffffffffffff021916908373ffffffffffffffffffffffffffffffffffffffff160217905550808273ffffffffffffffffffffffffffffffffffffffff16610bda83610645565b73ffffffffffffffffffffffffffffffffffffffff167f8c5be1e5ebec7d5bd14f71427d1e84f3dd0314c0f7b2291e5b200ac8c7c3b92560405160405180910390a45050565b600080610c2c83610645565b90508073ffffffffffffffffffffffffffffffffffffffff168473ffffffffffffffffffffffffffffffffffffffff161480610c6e5750610c6d818561099e565b5b80610cac57508373ffffffffffffffffffffffffffffffffffffffff16610c94846103fa565b73ffffffffffffffffffffffffffffffffffffffff16145b91505092915050565b8273ffffffffffffffffffffffffffffffffffffffff16610cd582610645565b73ffffffffffffffffffffffffffffffffffffffff1614610d2b576040517f08c379a0000000000000000000000000000000000000000000000000000000008152600401610d22906124f0565b60405180910390fd5b600073ffffffffffffffffffffffffffffffffffffffff168273ffffffffffffffffffffffffffffffffffffffff1603610d9a576040517f08c379a0000000000000000000000000000000000000000000000000000000008152600401610d9190612582565b60405180910390fd5b610da7838383600161165b565b8273ffffffffffffffffffffffffffffffffffffffff16610dc782610645565b73ffffffffffffffffffffffffffffffffffffffff1614610e1d576040517f08c379a0000000000000000000000000000000000000000000000000000000008152600401610e14906124f0565b60405180910390fd5b6004600082815260200190815260200160002060006101000a81549073ffffffffffffffffffffffffffffffffffffffff02191690556001600360008573ffffffffffffffffffffffffffffffffffffffff1673ffffffffffffffffffffffffffffffffffffffff168152602001908152602001600020600082825403925050819055506001600360008473ffffffffffffffffffffffffffffffffffffffff1673ffffffffffffffffffffffffffffffffffffffff16815260200190815260200160002060008282540192505081905550816002600083815260200190815260200160002060006101000a81548173ffffffffffffffffffffffffffffffffffffffff021916908373ffffffffffffffffffffffffffffffffffffffff160217905550808273ffffffffffffffffffffffffffffffffffffffff168473ffffffffffffffffffffffffffffffffffffffff167fddf252ad1be2c89b69c2b068fc378daa952ba7f163c4a11628f55a4df523b3ef60405160405180910390a4610fa98383836001611661565b505050565b6001816000016000828254019250508190555050565b600081600001549050919050565b600073ffffffffffffffffffffffffffffffffffffffff168273ffffffffffffffffffffffffffffffffffffffff1603611041576040517f08c379a0000000000000000000000000000000000000000000000000000000008152600401611038906125ee565b60405180910390fd5b61104a8161161a565b1561108a576040517f08c379a00000000000000000000000000000000000000000000000000000000081526004016110819061265a565b60405180910390fd5b61109860008383600161165b565b6110a18161161a565b156110e1576040517f08c379a00000000000000000000000000000000000000000000000000000000081526004016110d89061265a565b60405180910390fd5b6001600360008473ffffffffffffffffffffffffffffffffffffffff1673ffffffffffffffffffffffffffffffffffffffff16815260200190815260200160002060008282540192505081905550816002600083815260200190815260200160002060006101000a81548173ffffffffffffffffffffffffffffffffffffffff021916908373ffffffffffffffffffffffffffffffffffffffff160217905550808273ffffffffffffffffffffffffffffffffffffffff16600073ffffffffffffffffffffffffffffffffffffffff167fddf252ad1be2c89b69c2b068fc378daa952ba7f163c4a11628f55a4df523b3ef60405160405180910390a46111eb600083836001611661565b5050565b6111f88261161a565b611237576040517f08c379a000000000000000000000000000000000000000000000000000000000815260040161122e906126ec565b60405180910390fd5b8060066000848152602001908152602001600020908161125791906128b8565b507ff8e1a15aba9398e019f0b49df1a4fde98ee17ae345cb5f6b5e2c27f5033e8ce7826040516112879190611ef2565b60405180910390a15050565b611329816040516024016112a79190611bb2565b6040516020818303038152906040527f41304fac000000000000000000000000000000000000000000000000000000007bffffffffffffffffffffffffffffffffffffffffffffffffffffffff19166020820180517bffffffffffffffffffffffffffffffffffffffffffffffffffffffff8381831617835250505050611667565b50565b60006002600083815260200190815260200160002060009054906101000a900473ffffffffffffffffffffffffffffffffffffffff169050919050565b8173ffffffffffffffffffffffffffffffffffffffff168373ffffffffffffffffffffffffffffffffffffffff16036113d7576040517f08c379a00000000000000000000000000000000000000000000000000000000081526004016113ce906129d6565b60405180910390fd5b80600560008573ffffffffffffffffffffffffffffffffffffffff1673ffffffffffffffffffffffffffffffffffffffff16815260200190815260200160002060008473ffffffffffffffffffffffffffffffffffffffff1673ffffffffffffffffffffffffffffffffffffffff16815260200190815260200160002060006101000a81548160ff0219169083151502179055508173ffffffffffffffffffffffffffffffffffffffff168373ffffffffffffffffffffffffffffffffffffffff167f17307eab39ab6107e8899845ad3d59bd9653f200f220920489ca2b5937696c31836040516114c89190611b07565b60405180910390a3505050565b6114e0848484610cb5565b6114ec84848484611688565b61152b576040517f08c379a000000000000000000000000000000000000000000000000000000000815260040161152290612a68565b60405180910390fd5b50505050565b606060405180602001604052806000815250905090565b606061155382610b14565b600061155d611531565b9050600081511161157d57604051806020016040528060008152506115a8565b806115878461180f565b60405160200161159892919061245a565b6040516020818303038152906040525b915050919050565b60007f01ffc9a7000000000000000000000000000000000000000000000000000000007bffffffffffffffffffffffffffffffffffffffffffffffffffffffff1916827bffffffffffffffffffffffffffffffffffffffffffffffffffffffff1916149050919050565b60008073ffffffffffffffffffffffffffffffffffffffff1661163c8361132c565b73ffffffffffffffffffffffffffffffffffffffff1614159050919050565b50505050565b50505050565b60006a636f6e736f6c652e6c6f679050600080835160208501845afa505050565b60006116a98473ffffffffffffffffffffffffffffffffffffffff166118dd565b15611802578373ffffffffffffffffffffffffffffffffffffffff1663150b7a026116d2610b5f565b8786866040518563ffffffff1660e01b81526004016116f49493929190612add565b6020604051808303816000875af192505050801561173057506040513d601f19601f8201168201806040525081019061172d9190612b3e565b60015b6117b2573d8060008114611760576040519150601f19603f3d011682016040523d82523d6000602084013e611765565b606091505b5060008151036117aa576040517f08c379a00000000000000000000000000000000000000000000000000000000081526004016117a190612a68565b60405180910390fd5b805181602001fd5b63150b7a0260e01b7bffffffffffffffffffffffffffffffffffffffffffffffffffffffff1916817bffffffffffffffffffffffffffffffffffffffffffffffffffffffff191614915050611807565b600190505b949350505050565b60606000600161181e84611900565b01905060008167ffffffffffffffff81111561183d5761183c611d5c565b5b6040519080825280601f01601f19166020018201604052801561186f5781602001600182028036833780820191505090505b509050600082602001820190505b6001156118d2578080600190039150507f3031323334353637383961626364656600000000000000000000000000000000600a86061a8153600a85816118c6576118c5612b6b565b5b0494506000850361187d575b819350505050919050565b6000808273ffffffffffffffffffffffffffffffffffffffff163b119050919050565b600080600090507a184f03e93ff9f4daa797ed6e38ed64bf6a1f010000000000000000831061195e577a184f03e93ff9f4daa797ed6e38ed64bf6a1f010000000000000000838161195457611953612b6b565b5b0492506040810190505b6d04ee2d6d415b85acef8100000000831061199b576d04ee2d6d415b85acef8100000000838161199157611990612b6b565b5b0492506020810190505b662386f26fc1000083106119ca57662386f26fc1000083816119c0576119bf612b6b565b5b0492506010810190505b6305f5e10083106119f3576305f5e10083816119e9576119e8612b6b565b5b0492506008810190505b6127108310611a18576127108381611a0e57611a0d612b6b565b5b0492506004810190505b60648310611a3b5760648381611a3157611a30612b6b565b5b0492506002810190505b600a8310611a4a576001810190505b80915050919050565b6000604051905090565b600080fd5b600080fd5b60007fffffffff0000000000000000000000000000000000000000000000000000000082169050919050565b611a9c81611a67565b8114611aa757600080fd5b50565b600081359050611ab981611a93565b92915050565b600060208284031215611ad557611ad4611a5d565b5b6000611ae384828501611aaa565b91505092915050565b60008115159050919050565b611b0181611aec565b82525050565b6000602082019050611b1c6000830184611af8565b92915050565b600081519050919050565b600082825260208201905092915050565b60005b83811015611b5c578082015181840152602081019050611b41565b60008484015250505050565b6000601f19601f8301169050919050565b6000611b8482611b22565b611b8e8185611b2d565b9350611b9e818560208601611b3e565b611ba781611b68565b840191505092915050565b60006020820190508181036000830152611bcc8184611b79565b905092915050565b6000819050919050565b611be781611bd4565b8114611bf257600080fd5b50565b600081359050611c0481611bde565b92915050565b600060208284031215611c2057611c1f611a5d565b5b6000611c2e84828501611bf5565b91505092915050565b600073ffffffffffffffffffffffffffffffffffffffff82169050919050565b6000611c6282611c37565b9050919050565b611c7281611c57565b82525050565b6000602082019050611c8d6000830184611c69565b92915050565b611c9c81611c57565b8114611ca757600080fd5b50565b600081359050611cb981611c93565b92915050565b60008060408385031215611cd657611cd5611a5d565b5b6000611ce485828601611caa565b9250506020611cf585828601611bf5565b9150509250929050565b600080600060608486031215611d1857611d17611a5d565b5b6000611d2686828701611caa565b9350506020611d3786828701611caa565b9250506040611d4886828701611bf5565b9150509250925092565b600080fd5b600080fd5b7f4e487b7100000000000000000000000000000000000000000000000000000000600052604160045260246000fd5b611d9482611b68565b810181811067ffffffffffffffff82111715611db357611db2611d5c565b5b80604052505050565b6000611dc6611a53565b9050611dd28282611d8b565b919050565b600067ffffffffffffffff821115611df257611df1611d5c565b5b611dfb82611b68565b9050602081019050919050565b82818337600083830152505050565b6000611e2a611e2584611dd7565b611dbc565b905082815260208101848484011115611e4657611e45611d57565b5b611e51848285611e08565b509392505050565b600082601f830112611e6e57611e6d611d52565b5b8135611e7e848260208601611e17565b91505092915050565b60008060408385031215611e9e57611e9d611a5d565b5b6000611eac85828601611caa565b925050602083013567ffffffffffffffff811115611ecd57611ecc611a62565b5b611ed985828601611e59565b9150509250929050565b611eec81611bd4565b82525050565b6000602082019050611f076000830184611ee3565b92915050565b600060208284031215611f2357611f22611a5d565b5b6000611f3184828501611caa565b91505092915050565b611f4381611aec565b8114611f4e57600080fd5b50565b600081359050611f6081611f3a565b92915050565b60008060408385031215611f7d57611f7c611a5d565b5b6000611f8b85828601611caa565b9250506020611f9c85828601611f51565b9150509250929050565b600067ffffffffffffffff821115611fc157611fc0611d5c565b5b611fca82611b68565b9050602081019050919050565b6000611fea611fe584611fa6565b611dbc565b90508281526020810184848401111561200657612005611d57565b5b612011848285611e08565b509392505050565b600082601f83011261202e5761202d611d52565b5b813561203e848260208601611fd7565b91505092915050565b6000806000806080858703121561206157612060611a5d565b5b600061206f87828801611caa565b945050602061208087828801611caa565b935050604061209187828801611bf5565b925050606085013567ffffffffffffffff8111156120b2576120b1611a62565b5b6120be87828801612019565b91505092959194509250565b600080604083850312156120e1576120e0611a5d565b5b60006120ef85828601611caa565b925050602061210085828601611caa565b9150509250929050565b7f4e487b7100000000000000000000000000000000000000000000000000000000600052602260045260246000fd5b6000600282049050600182168061215157607f821691505b6020821081036121645761216361210a565b5b50919050565b7f4552433732313a20617070726f76616c20746f2063757272656e74206f776e6560008201527f7200000000000000000000000000000000000000000000000000000000000000602082015250565b60006121c6602183611b2d565b91506121d18261216a565b604082019050919050565b600060208201905081810360008301526121f5816121b9565b9050919050565b7f4552433732313a20617070726f76652063616c6c6572206973206e6f7420746f60008201527f6b656e206f776e6572206f7220617070726f76656420666f7220616c6c000000602082015250565b6000612258603d83611b2d565b9150612263826121fc565b604082019050919050565b600060208201905081810360008301526122878161224b565b9050919050565b7f4552433732313a2063616c6c6572206973206e6f7420746f6b656e206f776e6560008201527f72206f7220617070726f76656400000000000000000000000000000000000000602082015250565b60006122ea602d83611b2d565b91506122f58261228e565b604082019050919050565b60006020820190508181036000830152612319816122dd565b9050919050565b7f4552433732313a20696e76616c696420746f6b656e2049440000000000000000600082015250565b6000612356601883611b2d565b915061236182612320565b602082019050919050565b6000602082019050818103600083015261238581612349565b9050919050565b7f4552433732313a2061646472657373207a65726f206973206e6f74206120766160008201527f6c6964206f776e65720000000000000000000000000000000000000000000000602082015250565b60006123e8602983611b2d565b91506123f38261238c565b604082019050919050565b60006020820190508181036000830152612417816123db565b9050919050565b600081905092915050565b600061243482611b22565b61243e818561241e565b935061244e818560208601611b3e565b80840191505092915050565b60006124668285612429565b91506124728284612429565b91508190509392505050565b7f4552433732313a207472616e736665722066726f6d20696e636f72726563742060008201527f6f776e6572000000000000000000000000000000000000000000000000000000602082015250565b60006124da602583611b2d565b91506124e58261247e565b604082019050919050565b60006020820190508181036000830152612509816124cd565b9050919050565b7f4552433732313a207472616e7366657220746f20746865207a65726f2061646460008201527f7265737300000000000000000000000000000000000000000000000000000000602082015250565b600061256c602483611b2d565b915061257782612510565b604082019050919050565b6000602082019050818103600083015261259b8161255f565b9050919050565b7f4552433732313a206d696e7420746f20746865207a65726f2061646472657373600082015250565b60006125d8602083611b2d565b91506125e3826125a2565b602082019050919050565b60006020820190508181036000830152612607816125cb565b9050919050565b7f4552433732313a20746f6b656e20616c7265616479206d696e74656400000000600082015250565b6000612644601c83611b2d565b915061264f8261260e565b602082019050919050565b6000602082019050818103600083015261267381612637565b9050919050565b7f45524337323155524953746f726167653a2055524920736574206f66206e6f6e60008201527f6578697374656e7420746f6b656e000000000000000000000000000000000000602082015250565b60006126d6602e83611b2d565b91506126e18261267a565b604082019050919050565b60006020820190508181036000830152612705816126c9565b9050919050565b60008190508160005260206000209050919050565b60006020601f8301049050919050565b600082821b905092915050565b60006008830261276e7fffffffffffffffffffffffffffffffffffffffffffffffffffffffffffffffff82612731565b6127788683612731565b95508019841693508086168417925050509392505050565b6000819050919050565b60006127b56127b06127ab84611bd4565b612790565b611bd4565b9050919050565b6000819050919050565b6127cf8361279a565b6127e36127db826127bc565b84845461273e565b825550505050565b600090565b6127f86127eb565b6128038184846127c6565b505050565b5b818110156128275761281c6000826127f0565b600181019050612809565b5050565b601f82111561286c5761283d8161270c565b61284684612721565b81016020851015612855578190505b61286961286185612721565b830182612808565b50505b505050565b600082821c905092915050565b600061288f60001984600802612871565b1980831691505092915050565b60006128a8838361287e565b9150826002028217905092915050565b6128c182611b22565b67ffffffffffffffff8111156128da576128d9611d5c565b5b6128e48254612139565b6128ef82828561282b565b600060209050601f8311600181146129225760008415612910578287015190505b61291a858261289c565b865550612982565b601f1984166129308661270c565b60005b8281101561295857848901518255600182019150602085019450602081019050612933565b868310156129755784890151612971601f89168261287e565b8355505b6001600288020188555050505b505050505050565b7f4552433732313a20617070726f766520746f2063616c6c657200000000000000600082015250565b60006129c0601983611b2d565b91506129cb8261298a565b602082019050919050565b600060208201905081810360008301526129ef816129b3565b9050919050565b7f4552433732313a207472616e7366657220746f206e6f6e20455243373231526560008201527f63656976657220696d706c656d656e7465720000000000000000000000000000602082015250565b6000612a52603283611b2d565b9150612a5d826129f6565b604082019050919050565b60006020820190508181036000830152612a8181612a45565b9050919050565b600081519050919050565b600082825260208201905092915050565b6000612aaf82612a88565b612ab98185612a93565b9350612ac9818560208601611b3e565b612ad281611b68565b840191505092915050565b6000608082019050612af26000830187611c69565b612aff6020830186611c69565b612b0c6040830185611ee3565b8181036060830152612b1e8184612aa4565b905095945050505050565b600081519050612b3881611a93565b92915050565b600060208284031215612b5457612b53611a5d565b5b6000612b6284828501612b29565b91505092915050565b7f4e487b7100000000000000000000000000000000000000000000000000000000600052601260045260246000fdfea2646970667358221220421669071f76ca36aee9560796332983879dbb7ccdf1889772b4b33574e94bdf64736f6c63430008130033",
  "linkReferences": {},
  "deployedLinkReferences": {}
}